:0A0A8C003F065B4F666D7D077F6F2C
:030A9600010C0050
:090A590093F580C2A67F057E0022
:100A6200D3EF9400EE940040147D727C00ED1D7073
:0D0A7200011CED4C70F7EF1F70E61E80E3D5
:010A7F002254
:1009FE00EF75F06484FEEF75F06484E5F075F00A2F
:100A0E0084FBEF75F00A84AAF07580FFD2A775807B
:100A1E00FEC2A7D2A6AF06EF900A8C120A597580B5
:100A2E00FFD2A77580FDC2A7D2A6AF03EF120A5957
:100A3E007580FFD2A77580FBC2A7D2A6AF02EF9337
:0B0A4E00F580C2A67F057E00020A6250
:1008CC0075B0F0E5B064F0605F7F0A7E00120A62DA
:1008DC00E5B064F06052AFB0EF2490601B24C060B0
:1008EC001224E0600924F07012E4F50C800D750CF4
:1008FC00018008750C028003750C0375B00FAFB046
:10090C00EF24F9601824FC601024FE6008147013A6
:10091C00850C0C800E7404800674088002740C25FF
:10092C000CF50CE5B0B40FFB75B0FFE5B0F4603519
:10093C007F0A7E00120A62E5B0F46029AFB0EF24A2
:10094C0009601A24FC601124FE6008147012750CE6
:10095C0010800D750C118008750C128003750C132A
:06096C00E5B0B4FFFB2220
:0C0A8000D28C758901758C4B758AFD22A3
:10080000E4F508F509E50C641060731208CCE50CFA
:10081000B40800505F90081CF828287302083402BE
:10082000083C02084402084C02085402085C020812
:100830006402086C75080075091E803B7508007518
:10084000093C803375080075095A802B75080075BE
:1008500009788023750800750996801B7508007556
:1008600009B480137508007509D2800B75080075EE
:1008700009F08003750C10AF091209FE8087750C12
:1008800010120A80308D1EC28D758C4B758AFD0545
:100890000AE50AB4140FE4F50A050BC2A37F32FE81
:1008A000120A62B2A3C3E509950BFF1209FED3E554
:1008B0000B9509E4950840CCE4F50BC2A3D2A7F54B
:0C08C00080C2A7D2A67580FFC2A680FEF1
:0300000002097280
:0C097200787FE4F6D8FD75810C0209B90D
:10097E00020800E493A3F8E493A34003F68001F287
:10098E0008DFF48029E493A3F85407240CC8C3337A
:10099E00C4540F4420C8834004F456800146F6DF49
:1009AE00E4800B0102040810204080900A96E47E39
:1009BE00019360BCA3FF543F30E509541FFEE4933E
:1009CE00A360010ECF54C025E060A840B8E493A305
:1009DE00FAE493A3F8E493A3C8C582C8CAC583CA30
:1009EE00F0A3C8C582C8CAC583CADFE9DEE780BEE8
:010A9900005C
:00000001FF
